:100000000C9434000C943E000C943E000C943E0082
:100010000C943E000C943E000C943E000C943E0068
:100020000C943E000C943E000C943E000C943E0058
:100030000C943E000C943E000C943E000C943E0048
:100040000C943E000C943E000C943E000C943E0038
:100050000C943E000C943E000C943E000C943E0028
:100060000C943E000C943E0011241FBECFEFD8E04C
:10007000DEBFCDBF0E9440000C9489000C940000AC
:10008000259A249A2ED02D9822D02D9A25981D9904
:10009000FECF1D9BFECF1D99FECF09D0322F07D07A
:1000A00006D0293111F02C98EDCF2C9A089510E14B
:1000B0002227199BFECF1FD0199B03C00894221F33
:1000C00001C0220F1999FECF1A9599F708955FEF95
:1000D00062ED72E07A95F1F76A95D9F75A95C1F712
:1000E00008955FEF6FEF74EA7A95F1F76A95D9F7A3
:1000F0005A95C1F70895442746BD44E647BD4AE0F6
:1001000045BD45B341FFFDCF442745BD42E045BB5A
:060110000895F894FFCFF2
:00000001FF
