:100000000C9434000C943E000C943E000C943E0082
:100010000C943E000C943E000C943E000C943E0068
:100020000C943E000C943E000C943E000C943E0058
:100030000C943E000C943E000C943E000C943E0048
:100040000C943E000C943E000C943E000C943E0038
:100050000C943E000C943E000C943E000C943E0028
:100060000C943E000C943E0011241FBECFEFD8E04C
:10007000DEBFCDBF0E9440000C948B000C940000AA
:100080001FEF14B930D0259A2D9823D02D9A25989A
:100090001D99FECF1D9BFECF1D99FECF0AD059E1C1
:1000A000251718F40C945700EDCF2C9AEBCF2C9811
:1000B000E9CF18E122271D9BFECF1FD01D9B03C057
:1000C0000894221F01C0220F1D99FECF1A9599F79F
:1000D00008955FEF62ED72E07A95F1F76A95D9F7CE
:1000E0005A95C1F708955FEF6FEF74EA7A95F1F7CB
:1000F0006A95D9F75A95C1F70895442746BD44E655
:1001000047BD4AE045BD45B341FFFDCF442745BD4E
:0A01100042E045BB0895F894FFCFCC
:00000001FF
