:100000000C9434000C943E000C943E000C943E0082
:100010000C943E000C943E000C943E000C943E0068
:100020000C943E000C943E000C943E000C943E0058
:100030000C943E000C943E000C943E000C943E0048
:100040000C943E000C943E000C943E000C943E0038
:100050000C943E000C943E000C943E000C943E0028
:100060000C943E000C943E0011241FBECFEFD8E04C
:10007000DEBFCDBF0E9440000C948D000C940000A8
:100080001FEF14B932D02D9826D02D9A25981D999E
:10009000FECF1D9BFECF1D99FECF0DD0322F0BD072
:1000A0000AD059E1251718F40C945900EBCF2C9A7B
:1000B00008952C98089518E02227199BFECF1FD091
:1000C000199B03C00894221F01C0220F1999FECF6B
:1000D0001A9599F708955FEF62ED72E07A95F1F75E
:1000E0006A95D9F75A95C1F708955FEF6FEF74EAF3
:1000F0007A95F1F76A95D9F75A95C1F7089544278B
:1001000046BD44E647BD4AE045BD45B341FFFDCF8E
:0E011000442745BD42E045BB0895F894FFCF5B
:00000001FF
